:100000000C945D000C9402060C94D5050C948500AC
:100010000C9485000C9485000C9485000C9485004C
:100020000C9485000C9485000C9485000C9485003C
:100030000C9485000C9485000C9485000C9485002C
:100040000C948B050C9485000C94B4060C942F062C
:100050000C947B060C9485000C9485000C94850010
:100060000C9485000C9485000000000024002700FB
:100070002A0000000000250028002B0004020202D4
:10008000020204040204040404040303030303033C
:10009000400204081020018001020408102001021F
:1000A00004081020010304060000000000000007FF
:1000B0000002000000000000290A11241FBECFEF3B
:1000C000D8E0DEBFCDBF11E0A0E0B1E0ECE8F5E1A3
:1000D00002C005900D92AC31B107D9F723E0ACE135
:1000E000B1E001C01D92A137B207E1F710E0CDE504
:1000F000D0E004C02197FE010E94B50ACC35D1079B
:10010000C9F70E94A1080C94C40A0C940000E1EB0A
:10011000F0E02491EDE9F0E09491E9E8F0E0E49179
:10012000EE23C9F0222339F0233001F1A8F4213065
:1001300019F1223029F1F0E0EE0FFF1FEE58FF4FCA
:10014000A591B4912FB7F894EC91811126C09095A8
:100150009E239C932FBF08952630A9F02730C9F025
:10016000243049F7209180002F7D03C0209180002A
:100170002F7720938000DFCF24B52F7724BDDBCFEE
:1001800024B52F7DFBCF2091B0002F772093B000B6
:10019000D2CF2091B0002F7DF9CF9E2BDACF3FB781
:1001A000F89480916D0390916E03A0916F03B091CC
:1001B000700326B5A89B05C02F3F19F00196A11D1D
:1001C000B11D3FBFBA2FA92F982F8827BC01CD01A1
:1001D000620F711D811D911D43E0660F771F881FFF
:1001E000991F4A95D1F70895CF92DF92EF92FF922F
:1001F000CF93DF936B017C010E94CF00EB01C11410
:10020000D104E104F10439F4DF91CF91FF90EF9034
:10021000DF90CF9008950E94CF006C1B7D0B683E4D
:10022000734068F381E0C81AD108E108F108C851A9
:10023000DC4FE5CF08950895CF92DF92EF92FF92C1
:100240000F931F93CF93DF937C016B01D0E0C0E04D
:1002500010E000E0D60114968D919C91C817D90743
:10026000B0F4D701ED91FC910190F081E02DD60121
:100270008D919C9160E0009721F08C0F9D1FDC0117
:100280006C91C7010995080F191F2196E3CFC8018A
:10029000DF91CF911F910F91FF90EF90DF90CF9062
:1002A0000895EF92FF920F931F93CF93DF937C01FA
:1002B0008B01D0E0C0E0F80164910F5F1F4F66230F
:1002C00059F0D701ED91FC910190F081E02DC7012B
:1002D0000995C80FD91FEFCFCE01DF91CF911F91A4
:1002E0000F91FF90EF900895CF92DF92EF92FF92DF
:1002F0000F931F93CF93DF936C01EB017B01E40E0F
:10030000F51E10E000E0CE15DF0561F06991D60121
:10031000ED91FC910190F081E02DC6010995080F47
:10032000191FF1CFC801DF91CF911F910F91FF905D
:10033000EF90DF90CF900895CF93DF93FC01462F8D
:1003400026853785E901CB5BDF4F8881998101964E
:1003500065E470E00E947F0AD901A95BBF4F6D91EF
:100360007C91119768177907D1F368817981260FFD
:10037000371FD9014C93A685B785AB5BBF4F11964C
:100380009C938E93A689B7898C91978D21E030E05C
:1003900001C0220F9A95EAF7822B8C9381E081A30A
:1003A0000488F589E02D80818064808381E090E07D
:1003B000DF91CF910895FC0191A1992329F0A4899F
:1003C000B5898C9186FFF9CF11A20895DC011C96A6
:1003D0008D919C91FC01EB5BFF4F408151813296E6
:1003E000208131814217530791F020813181820FA2
:1003F000931FDC012C9180819181019665E470E06E
:100400000E947F0A91838083822F90E008958FEF6E
:100410009FEF0895FC0184859585FC01EB5BFF4F00
:10042000408151813296208131814217530741F03A
:1004300020813181820F931FFC01808190E008951B
:100440008FEF9FEF0895FC0124853585F901EB5B63
:10045000FF4F80819181295B3F4FF90120813181DC
:100460008B5B9F4F821B930B65E470E00E947F0AB9
:100470000895CF93DF93FC0186859785DC01AB5B04
:10048000BF4F895B9F4F4D915C911197EC01288183
:10049000398142175307B9F7A689B7894C91248D42
:1004A00081E090E0BC0102C0660F771F2A95E2F759
:1004B0009B01209524232C93A689B7894C91258DE7
:1004C000EC0102C0CC0FDD1F2A95E2F79E012095BA
:1004D00024232C93A689B7894C91268DBC0102C098
:1004E000660F771F2A95E2F79B01209524232C9312
:1004F000A689B7892C91378D01C0880F3A95EAF704
:10050000809582238C9384859585FC01E95BFF4F60
:10051000208131818B5B9F4FEC0139832883DF91F0
:10052000CF910895CF92DF92EF92FF921F93CF93D6
:10053000DF93EC016A017B01122FEC89FD8928A170
:1005400081E090E001C0880F2A95EAF7808360E897
:1005500074E88EE190E0A70196010E94930A215071
:100560003109410951095695479537952795211528
:1005700080E1380798F0EC89FD89108260E472E42C
:100580008FE090E0A70196010E94930A2150310963
:10059000410951095695479537952795E889F98975
:1005A0003083EA89FB892083E88DF98D1083EE89F9
:1005B000FF8920813C8D81E090E0AC0101C0440FB7
:1005C0003A95EAF7242B2083EE89FF8920813D8D1F
:1005D000AC0101C0440F3A95EAF7242B2083EE8941
:1005E000FF8920813E8DAC0101C0440F3A95EAF7A6
:1005F000242B2083EE89FF8920813F8D01C0880F45
:100600003A95EAF7809582238083DF91CF911F91FD
:10061000FF90EF90DF90CF900895CF92DF92EF920E
:10062000FF92CF93DF93EC016A017B01EC89FD8996
:1006300028A181E090E001C0880F2A95EAF7808325
:1006400060E874E88EE190E0A70196010E94930AA9
:1006500021503109410951095695479537952795FC
:10066000211580E1380798F0EC89FD89108260E45B
:1006700072E48FE090E0A70196010E94930A215056
:100680003109410951095695479537952795E889CC
:10069000F9893083EA89FB89208319A2EE89FF89D1
:1006A00020813C8D81E090E0AC0101C0440F3A957F
:1006B000EAF7242B2083EE89FF8920813D8DAC0150
:1006C00001C0440F3A95EAF7242B2083EE89FF8975
:1006D00020813E8DAC0101C0440F3A95EAF7242BEE
:1006E0002083EE89FF8920813F8D01C0880F3A95D4
:1006F000EAF7809582238083DF91CF91FF90EF907E
:10070000DF90CF900895DB0114964D915C91159781
:100710006D917C91DC01ED91FC910280F381E02DE3
:1007200009940F931F93CF9323E8260F233040F4AF
:10073000C62F8C016DE70E949C0160E26C27C80106
:10074000CF911F910F910C949C01209100012223C5
:10075000E1F3FC0111A20895CF92DF92EF92FF9294
:10076000DC01CB0180959095A095B095FA01240FFE
:10077000351FE217F307E1F041916C017D01C426BA
:1007800048E050E0D701C601B695A79597958795A3
:10079000C0FE08C060E2862763E8962768EBA627BC
:1007A0006DEEB627415051096C017D0159F7E1CF3B
:1007B000BC01CD016095709580959095FF90EF906C
:1007C000DF90CF9008954F925F926F927F928F92B9
:1007D0009F92AF92BF92CF92DF92EF92FF920F93D0
:1007E0001F93CF93DF9300D000D0CDB7DEB78C013D
:1007F000D62EC72E5A0179018091570281113BC034
:1008000040E056E960E070E089E393E00E940D0368
:10081000EDE9F0E02491E9E8F0E08491882399F093
:1008200090E0880F991FFC01E859FF4FA591B49102
:10083000FC01EE58FF4F859194918FB7F894EC919D
:100840002E2B2C938FBF80E00E9487002091E7021F
:100850003091E8028091E9029091EA022817390765
:1008600039F481E080930001809138030E94870071
:1008700081E08093570281E4E816F10408F08FC00C
:100880001092000181E00E9487002091E7023091E0
:10089000E8028091E9029091EA022817390761F491
:1008A000F80162A173A184A195A16115710581056B
:1008B000910511F00E94F4006EE7C8010E949C01AE
:1008C00092E0992E9E0C9982CA82DB8223E030E06E
:1008D000AE014F5F5F4F60E070E0CB010E94AC0360
:1008E0002B013C01692DC8010E9491036A81C80156
:1008F0000E9491036B81C8010E9491039701A50199
:10090000C301B2010E94AC03962E872E782E692E69
:100910006501AE0CBF1CCA14DB04D1F569827A8272
:100920008B829C82CE0101966C015E0195E0A90E3E
:10093000B11CF60161916F01C8010E949103CA14B4
:10094000DB04B9F76FE7C8010E949C01F80166A1BA
:1009500077A180A591A5611571058105910511F01B
:100960000E94F400C7010F900F900F900F90DF913D
:10097000CF911F910F91FF90EF90DF90CF90BF909C
:10098000AF909F908F907F906F905F904F90089561
:10099000F60161916F01C8010E949103BCCFEE2462
:1009A000EA94FE2CDFCFCF92DF92EF92FF920F936B
:1009B0001F93CF93DF93CDB7DEB7C054D1090FB6E5
:1009C000F894DEBF0FBECDBF10E000E061157105E9
:1009D00071F16C017B0110E000E0F701249122230A
:1009E000E9F0C8010196E1E0F0E0EC0FFD1FE00F37
:1009F000F11F20838034910561F420E430E0AE01E2
:100A00004F5F5F4F70E060E0C6010E94E30390E03B
:100A100080E02FEFE21AF20A8C01DFCF9801AE01DD
:100A20004F5F5F4F70E060E0C6010E94E303C801C2
:100A3000C05CDF4F0FB6F894DEBF0FBECDBFDF91B5
:100A4000CF911F910F91FF90EF90DF90CF9008957D
:100A5000CF92DF92EF92FF920F931F93CF93DF938A
:100A60006C017B01EA016115710589F1209789F11B
:100A700041345105F0F050E040E00FE310E0980100
:100A8000241B350B4E0D5F1D70E060E0C6010E9417
:100A9000E303C017D107E9F0C801805C9F4FC81776
:100AA000D90708F4CE01A801C817D90790F08C0126
:100AB000E6CF9A01AB0170E060E0DF91CF911F912A
:100AC0000F91FF90EF90DF90CF900C94E303D0E074
:100AD000C0E0CE01DF91CF911F910F91FF90EF9079
:100AE000DF90CF900895CF93DF931F92CDB7DEB7FD
:100AF000698321E030E0AE014F5F5F4F70E060E05E
:100B00000E94E30381E090E00F90DF91CF91089580
:100B10000895089508951F920F920FB60F92112411
:100B20002F933F938F939F93AF93BF9380916903CC
:100B300090916A03A0916B03B0916C0330916803AC
:100B400026E0230F2D3758F50296A11DB11D2093E5
:100B500068038093690390936A03A0936B03B09337
:100B60006C0380916D0390916E03A0916F03B0911F
:100B700070030196A11DB11D80936D0390936E03C8
:100B8000A0936F03B0937003BF91AF919F918F912A
:100B90003F912F910F900FBE0F901F90189529E84D
:100BA000230F0396A11DB11DD2CF1F920F920FB636
:100BB0000F9211242F933F934F935F936F937F93E3
:100BC0008F939F93AF93BF93EF93FF9380913603DF
:100BD00090913703892B29F0E0913603F091370388
:100BE0000995FF91EF91BF91AF919F918F917F9167
:100BF0006F915F914F913F912F910F900FBE0F908A
:100C00001F9018951F920F920FB60F9211242F93D9
:100C10003F934F935F936F937F938F939F93AF9384
:100C2000BF93EF93FF938091340390913503892B09
:100C300029F0E0913403F09135030995FF91EF918C
:100C4000BF91AF919F918F917F916F915F914F91E4
:100C50003F912F910F900FBE0F901F9018951F92EC
:100C60000F920FB60F9211242F933F935F936F93C0
:100C70007F938F939F93AF93BF93EF93FF932091B5
:100C8000E7023091E8028091E9029091EA02281788
:100C90003907D1F48091C1008F7D8093C10080918C
:100CA000C10080648093C100FF91EF91BF91AF912B
:100CB0009F918F917F916F915F913F912F910F90B5
:100CC0000FBE0F901F901895E091E902F091EA0293
:100CD000EE55FD4F20818091E9029091EA02019644
:100CE00065E470E00E947F0A9093EA028093E90233
:100CF0002093C600D9CF1F920F920FB60F921124E6
:100D00002F933F934F935F936F937F938F939F9313
:100D1000AF93BF93EF93FF932091E7023091E802E6
:100D20008091E9029091EA022817390761F48091D5
:100D300038030E9487008091C1008F7B8093C1009F
:100D400081E080930001FF91EF91BF91AF919F915E
:100D50008F917F916F915F914F913F912F910F9064
:100D60000FBE0F901F9018951F920F920FB60F9203
:100D70001124CF92DF92EF92FF920F931F932F9344
:100D80003F934F935F936F937F938F939F93AF9313
:100D9000BF93EF93FF93CF93DF931F92CDB7DEB74F
:100DA0008091C00082FD1AC08091C6008983E091C5
:100DB0005502F091560290915402309759F59923BB
:100DC00009F443C01092540289818E3749F481E0BE
:100DD00090E0909356028093550246C08091C600E1
:100DE0000F90DF91CF91FF91EF91BF91AF919F91C4
:100DF0008F917F916F915F914F913F912F911F91B3
:100E00000F91FF90EF90DF90CF900F900FBE0F905B
:100E10001F901895992399F090E289278983109261
:100E20005402E730F105E0F6E85EF84F0C94B50A9D
:100E3000E406400761077F07D2071E0844088D3784
:100E400021F481E080935402CBCF89818E3779F4ED
:100E5000309729F3109253021092520210925102CD
:100E60001092500210924F0210925802B9CF8F3751
:100E700021F4E630F10571F7D2CF8D3759F3CFCF9A
:100E800089818093510222E030E030935602209312
:100E9000550290E090934E0280934D0221E030E0A5
:100EA000AE014F5F5F4F60E070E0CB010E94AC038A
:100EB0006093490270934A0280934B0290934C02D4
:100EC0008FCF8981109252028093530280915102F8
:100ED00081508093510283E090E09093560280937A
:100EE00055026091490270914A0280914B029091A3
:100EF0004C0221E030E0AE014F5F5F4FD7CF298138
:100F00008091520290915302822B909353028093CE
:100F1000520220915102215020935102813035E537
:100F2000930739F480E092E09093500280934F024F
:100F300023C08130A0E59A0719F487EB91E0F4CF44
:100F40008230B0E59B0719F48EE691E0EDCF833057
:100F500030E69307F9F485E291E090935002809394
:100F60004F0281E08093240110926D0110926C0178
:100F700010926B0110926A0184E090E02111ADCFD4
:100F800085E090E0909356028093550284E0809330
:100F90005102A7CF892B19F48BEE92E0C5CF89E5DA
:100FA00092E0C2CF20914F023091500221153105BD
:100FB000B9F1F901EB5BFF4F80819181019665E406
:100FC00070E00E947F0AD901A95BBF4F4D915C91EF
:100FD0008417950749F0498160817181260F371F79
:100FE000D9014C93918380838091510281508093E9
:100FF00051026091490270914A0280914B02909196
:101000004C0221E030E0AE014F5F5F4F0E94AC0325
:101010006093490270934A0280934B0290934C0272
:10102000809151028111DCCE85E090E090935602D0
:101030008093550284E080935102D2CE8091510278
:10104000815080935102E3E0F0E0E81BF109E05E9B
:10105000FE4F998190838111C3CE80914902909176
:101060004A0220914B0230914C0230931C01209394
:101070001D0190931E0180931F0186E090E09093E4
:10108000560280935502ACCE809152029091530249
:101090008130B5E59B0709F04EC0E0914F02F09119
:1010A000500223E030E08F010B5B1F4F85E4E82EF8
:1010B000F12C6F0187E4C80ED11CD8018D919C9151
:1010C0000196B7010E947F0AD6014D915C91841769
:1010D000950759F0D8014D915C91DA01AE0FBF1F11
:1010E0001C92D80111969C938E932150310929F7B7
:1010F000ECE1F1E0A0E2B1E020E231E080E04191FA
:101100009D91491301C08F5F2E173F07C1F78430AF
:1011100019F481E080935802109256021092550201
:1011200010925302109252021092510210925002E9
:1011300010924F0255CE83309046D1F61092240182
:10114000D7CFCF93DF93CDB7DEB762970FB6F894C2
:10115000DEBF0FBECDBF789484B5826084BD84B5F8
:10116000816084BD85B5826085BD85B5816085BDA2
:1011700080916E00816080936E001092810080915A
:1011800081008260809381008091810081608093E2
:101190008100809180008160809380008091B10007
:1011A00084608093B1008091B00081608093B00032
:1011B00080917A00846080937A0080917A008260C6
:1011C00080937A0080917A00816080937A00809188
:1011D0007A00806880937A001092C1008CB58F7B72
:1011E0008CBD67E0C62ED12CE12CF12C7DE0872E42
:1011F000912CA12CB12CE2E34E2E512C612C712CA0
:10120000FBE12F2EF1E03F2EF89480916303909143
:101210006403FC01E95BFF4F118210828B5B9F4FDF
:10122000FC0111821082E0916503F0916603108247
:10123000789430E020E050E040E060E170E289E343
:1012400093E00E94E3032FB7F89480916903909193
:101250006A03A0916B03B0916C032FBF809341038D
:1012600090934203A0934303B0934403E09165033A
:10127000F0916603808181111CC02FB7F894809192
:10128000690390916A03A0916B03B0916C032FBF27
:101290004091410350914203609143037091440394
:1012A000841B950BA60BB70B84369105A105B105E0
:1012B000E8F2E0916503F091660380818823B9F03C
:1012C00060916303709164038B010B5B1F4FF80106
:1012D0008081918147E050E0079710F4408151816F
:1012E000CE0108960E94BB0AF8018081918187E0B7
:1012F000FE013896DE01119601900D928A95E1F774
:101300008D819E8197FF03C0919581959109959557
:101310008795959587952B813C8137FF03C0319543
:1013200021953109359527953595279549815A811C
:1013300057FF03C0519541955109559547955595CE
:101340004795488729878A8723E030E0AE01485FC8
:101350005F4F61E070E289E393E00E94E3035398FA
:10136000C0925B03D0925C03E0925D03F0925E0357
:1013700080925F0390926003A0926103B092620337
:101380001092380353984F86588A698A7A8A24E0E3
:1013900030E0AE01415F5F4F60E070E389E393E0CE
:1013A0000E94E30389E393E00E94A5031FE111502B
:1013B00009F448C061E070E080E090E00E94F40031
:1013C0004B9BF5CF20917A0027FF05C080917A00D2
:1013D0008F7780937A0090B797FF03C080B78F779D
:1013E00080BF309237032092360380916900837F5B
:1013F00080936900E99A83B7817F846083BFF89402
:101400004B9B0DC083B7816083BF85B7806685BF66
:101410008F7D85BF7894889583B78E7F83BF7894BE
:10142000E998109237031092360327FF05C0809188
:101430007A00806880937A0097FFE6CE80B7806854
:1014400080BFE2CE64E170E080E090E00E94F400B2
:10145000DBCEE9E3F3E01382128288EE93E0A0E0B2
:10146000B0E084839583A683B7838BEE92E0958763
:10147000848782EA92E09787868785EC90E0918B5B
:10148000808B84EC90E0938B828B80EC90E0958B4A
:10149000848B81EC90E0978B868B82EC90E0918F2F
:1014A000808F86EC90E0938F828F84E0848F83E03E
:1014B000858F87E0868F85E0878F81E080A325E098
:1014C00031E03183208386A789E592E093A782A744
:1014D00088E592E095A784A71092580287E090E0F3
:1014E000A0E0B0E082A393A3A4A3B5A38DE090E015
:1014F000A0E0B0E086A397A3A0A7B1A70895AA1B78
:10150000BB1B51E107C0AA1FBB1FA617B70710F0EE
:10151000A61BB70B881F991F5A95A9F78095909520
:10152000BC01CD010895A1E21A2EAA1BBB1BFD012F
:101530000DC0AA1FBB1FEE1FFF1FA217B307E407B2
:10154000F50720F0A21BB30BE40BF50B661F771F0A
:10155000881F991F1A9469F76095709580959095EA
:101560009B01AC01BD01CF010895EE0FFF1F059057
:10157000F491E02D0994FB01DC0102C001900D9271
:0C15800041505040D8F70895F894FFCF78
:10158C00010000000073052805D30483032302E641
:0C159C00010A02A5038A058905880500E4
:00000001FF
